:100000000C9435000C945D000C945D000C945D0024
:100010000C945D000C945D000C945D000C945D00EC
:100020000C945D000C94F7020C945D000C945D0040
:100030000C945D000C945D000C945D000C945D00CC
:100040000C94AC040C945D000C94ED030C945D00D6
:100050000C945D000C945D000C945D000C945D00AC
:100060000C945D000C945D00720411241FBECFEF50
:10007000D8E0DEBFCDBF11E0A0E0B1E0E8EEFAE0ED
:1000800002C005900D92A433B107D9F712E0A4E3A2
:10009000B1E001C01D92A13FB107E1F710E0CAE64F
:1000A000D0E004C02297FE010E946E05C836D10739
:1000B000C9F70E9459030C9472050C94000085ED59
:1000C00092E040E052EC61E070E00E94150480E0B4
:1000D00090E021E030E0609134018430910594F4A7
:1000E00054B1FC01E25EFE4F4081542354B955B136
:1000F000542355B9FC01E65EFE4F5081562B5093B8
:10010000340110C0A901082E02C0440F551F0A94E3
:10011000E2F754B1542B54B955B1542B55B9462B71
:1001200040933401019686309105A9F681E08093D1
:10013000360110926F00109280008093810062E07F
:1001400070E080E090E042E452E00E945A020E9497
:10015000A2020895CF93DF93A0E0B1E0FD010190EA
:100160000020E9F73197EA1BFB0B90E00197EC01C7
:10017000C65EDE4F5881825E9E4FEC0148818091C1
:10018000340184238093350180E090E041C02D91BB
:100190002033F9F4109285001092840025B12423B5
:1001A00025B924B1252B24B92091840030918500F4
:1001B0002E323105C8F325B1242325B924B12423D7
:1001C00024B920918400309185002C333105C8F387
:1001D0001EC0109285001092840025B1242325B9F9
:1001E00024B1252B24B920918400309185002E3034
:1001F0003105C8F325B1242325B924B1242324B91A
:1002000020918400309185002C333105C8F301968C
:100210008E179F070CF4BBCFDF91CF91089583B168
:10022000209135018217E1F083B18217C9F083B1C3
:100230008217B1F083B1821799F083B1821781F0F0
:1002400083B1821769F083B1821751F083B18217AD
:1002500039F083B1821721F083B1821709F098C079
:1002600080918400909185009093380180933701AC
:10027000E9E3F1E0ABEBB1E083B18217D1F583B1F3
:100280008217B9F583B18217A1F583B1821789F579
:1002900083B1821771F583B1821759F583B1821743
:1002A00041F583B1821729F583B1821711F583B126
:1002B0008217F9F483B18217E1F483B18217C9F48C
:1002C00083B18217B1F483B1821799F483B1821795
:1002D00081F483B1821769F483B1821751F483B139
:1002E000821739F483B1821721F483B1821709F49C
:1002F0004FC080918400909185008D939D9383B130
:100300008217C9F183B18217B1F183B1821799F1D4
:1003100083B1821781F183B1821769F183B18217AA
:1003200051F183B1821739F183B1821721F183B181
:10033000821709F183B18217F1F083B18217D9F0E6
:1003400083B18217C1F083B18217A9F083B18217FC
:1003500091F083B1821779F083B1821761F083B194
:10036000821749F083B1821731F083B1821719F0F7
:1003700083B1821779F480918400909185008193F4
:10038000919381E0E93BF80709F076CF81E0089589
:1003900080E0089580E00895CF92DF92EF92FF927F
:1003A0000F931F93DF93CF93CDB7DEB728970FB688
:1003B000F894DEBF0FBECDBF1982ABEBB1E097E37F
:1003C000C92E91E0D92E20E030E090E8BE016F5FA9
:1003D0007F4F0D911D91F601419151916F0178016F
:1003E000E41AF50A40815181401B510B4E155F05FF
:1003F0003CF0AB01420F531FFA010081092B00832F
:10040000969541F42F5F3F4FAB01420F531FFA0106
:10041000108290E8F2E0AB33BF07D9F680933B023D
:1004200089818F7180933C028A818F7780933D020E
:100430008B8180933E028C81809580933F028D81D9
:10044000809340028E81809341028F81809342028B
:1004500088858093430285ED92E06BE372E049E08A
:1004600050E00E943A0328960FB6F894DEBF0FBE04
:10047000CDBFCF91DF911F910F91FF90EF90DF9053
:10048000CF900895809136010E94AA000E940F012A
:10049000882321F0809136010E94CC0180913601A1
:1004A0008F5F80933601853018F081E080933601AC
:1004B00008950895209170002E7F20937000209160
:1004C000B0002C7F2093B0002091B100277F2093B3
:1004D000B1002091B6002F7D2093B60020917000CE
:1004E0002D7F209370002091B10024602093B100F3
:1004F0002091B1002C7F2093B10026E030E03093B2
:10050000500220934F02611571058105910569F430
:1005100081E090E0A0E0B0E0809344029093450237
:10052000A0934602B093470208C0609344027093C0
:1005300045028093460290934702509349024093AC
:100540004802089510924A0210924B0210924C02F7
:1005500010924D0210924E0280914F0290915002E3
:100560008093B200E0E7F0E08081816080830895AD
:1005700080914A0290914B02A0914C02B0914D02A1
:100580000196A11DB11D80934A0290934B02A09346
:100590004C02B0934D0220914A0230914B0240919F
:1005A0004C0250914D028091440290914502A091DD
:1005B0004602B0914702281739074A075B07B0F097
:1005C00080914E02882391F481E080934E02109234
:1005D0004A0210924B0210924C0210924D02E0918E
:1005E0004802F0914902099510924E0208951F9217
:1005F0000F920FB60F9211242F933F934F935F9357
:100600006F937F938F939F93AF93BF93EF93FF93DA
:1006100080914F02909150028093B2000E94B802E4
:10062000FF91EF91BF91AF919F918F917F916F91CA
:100630005F914F913F912F910F900FBE0F901F90A0
:1006400018950F931F93CF93DF93EC01062F172F6D
:1006500007C0E881F9810190F081E02DCE01099574
:10066000F80161918F016623A1F7DF91CF911F916E
:100670000F910895EF92FF920F931F93CF93DF9303
:100680007C01EB018A010BC06991D701ED91FC91CE
:100690000190F081E02DC70109950150104001152E
:1006A000110591F7DF91CF911F910F91FF90EF907E
:1006B00008950E94F4040E945F000E945902FDCF39
:1006C000FC0182819381FC01E058FF4F2081318140
:1006D0008E579F4FFC0180819181281B390B2F770A
:1006E0003070C9010895FC0182819381FC01EE57AD
:1006F000FF4F20813181FC01E058FF4F4081518143
:100700004217530731F0820F931FFC01208130E024
:1007100002C02FEF3FEFC9010895DC0112962D9121
:100720003C911397F901EE57FF4F80819181D901D8
:10073000A058BF4F4D915C9111974817590759F038
:10074000280F391FD9012C9101968F7790709183D2
:10075000808330E002C02FEF3FEFC9010895DC0134
:1007600012968D919C911397FC01E058FF4F8E5784
:100770009F4FDC018D919C91119791838083089507
:10078000FC01A085B18521898C9190E0022E02C0E8
:10079000959587950A94E2F780FFF6CF0484F58556
:1007A000E02D60830895FB01E058FF4F40815181A7
:1007B0009A012F5F3F4F2F773070DB01AE57BF4F4D
:1007C0000D90BC91A02D2A173B0731F0640F751FC7
:1007D000DB018C933183208308951F920F920FB613
:1007E0000F9211242F933F934F935F936F937F93B7
:1007F0008F939F93AF93BF93EF93FF938091C60026
:1008000061E572E00E94D303FF91EF91BF91AF9138
:100810009F918F917F916F915F914F913F912F9118
:100820000F900FBE0F901F901895CF93DF93EC01A0
:100830009A01AB01E885F985203081EE380780E028
:10084000480780E0580709F449C081E090E00A8831
:1008500002C0880F991F0A94E2F7808360E079E074
:100860008DE390E00E9451052150304040405040BF
:10087000CA01B90122E030E040E050E00E94510599
:10088000EC81FD813083EE81FF812083EA85FB8549
:10089000408181E090E09C010E8402C0220F331F52
:1008A0000A94E2F7422B4083EA85FB8540819C0154
:1008B0000F8402C0220F331F0A94E2F7422B4083B9
:1008C000EA85FB852081088802C0880F991F0A9459
:1008D000E2F7282B2083DF91CF910895108220E149
:1008E00030E0CECF86E291E09093D6028093D5029D
:1008F00081E592E09093D8028093D70285EC90E056
:100900009093DA028093D90284EC90E09093DC0219
:100910008093DB0280EC90E09093DE028093DD0216
:1009200081EC90E09093E0028093DF0286EC90E00F
:100930009093E2028093E10284E08093E30283E0FB
:100940008093E40287E08093E50285E08093E602ED
:1009500081E08093E70208951F920F920FB60F92E5
:1009600011242F933F938F939F93AF93BF938091C5
:10097000EC029091ED02A091EE02B091EF02309165
:10098000F0020196A11DB11D232F2D5F2D3720F000
:100990002D570196A11DB11D2093F0028093EC020A
:1009A0009093ED02A093EE02B093EF028091E802E3
:1009B0009091E902A091EA02B091EB020196A11D8B
:1009C000B11D8093E8029093E902A093EA02B093EC
:1009D000EB02BF91AF919F918F913F912F910F901B
:1009E0000FBE0F901F901895789484B5826084BDD7
:1009F00084B5816084BD85B5826085BD85B5816023
:100A000085BDEEE6F0E0808181608083E1E8F0E082
:100A10001082808182608083808181608083E0E8B1
:100A2000F0E0808181608083E1EBF0E08081846090
:100A30008083E0EBF0E0808181608083EAE7F0E092
:100A400080818460808380818260808380818160F6
:100A500080838081806880831092C1000895A1E224
:100A60001A2EAA1BBB1BFD010DC0AA1FBB1FEE1F28
:100A7000FF1FA217B307E407F50720F0A21BB30B73
:100A8000E40BF50B661F771F881F991F1A9469F7EF
:100A900060957095809590959B01AC01BD01CF014B
:100AA000089597FB092E05260ED057FD04D0D7DFF9
:100AB0000AD0001C38F450954095309521953F4F51
:100AC0004F4F5F4F0895F6F790958095709561951B
:100AD0007F4F8F4F9F4F0895EE0FFF1F0590F491AA
:080AE000E02D0994F894FFCF0A
:100AE80030313030303030303030303030303131FB
:100AF8003030303030303030310001020408FEFD33
:100B0800FBF700000000C00321033A0360038D03D4
:040B18007303AF03B1
:00000001FF
