:10000000EBC0000004C1000002C1000000C10000FC
:10001000FEC00000FCC00000FAC00000F8C00000F4
:10002000F6C00000F4C00000F2C00000F9C20000F9
:10003000EEC00000ECC00000EAC00000E8C0000014
:10004000E6C00000E4C00000E2C00000E0C0000024
:10005000DEC00000DCC00000DAC000009DC100006E
:10006000D6C00000D4C00000D2C00000D0C0000044
:10007000CEC00000CCC00000CAC00000C8C0000054
:10008000C6C00000C4C00000C2C00000C0C0000064
:10009000BEC00000BCC0000005010905A101A1000F
:1000A0008501050919012910150025019510750113
:1000B000810205010930093109330934093509364E
:1000C000150026FF00750895068102C0C0050109CC
:1000D00005A101A1008502050919012910150025B6
:1000E00001951075018102050109300931093309B3
:1000F0003409350936150026FF007508950681027A
:10010000C0C005010905A101A10085030509190168
:10011000291015002501951075018102050109308E
:1001200009310933093409350936150026FF0075F0
:100130000895068102C0C005010905A101A100853D
:100140000405091901291015002501951075018173
:100150000205010930093109330934093509361519
:100160000026FF00750895068102C0C0120110012B
:1001700000000008EB034320000001020001090217
:100180002200010100803209040000010300000088
:1001900009211101000122D4000705810308000193
:1001A000040309040C03460069007A007A00690020
:1001B00000002403460069007A007A0069002700E5
:1001C0007300200047004300200074006F002000EF
:1001D000550053004200000011241FBECFEFD2E0B3
:1001E000DEBFCDBF11E0A0E0B1E0E8E4FDE002C079
:1001F00005900D92AE30B107D9F711E0AEE0B1E055
:1002000001C01D92A73AB107E1F72CD09BC5F8CEEB
:10021000CF93DF9384B7877F84BF28E10FB6F8942C
:1002200020936000109260000FBE80E190E09093F8
:10023000CD008093CC0086E08093CA0082E080935A
:10024000C800C9ECD0E02883539A5A9A8AB18063D7
:100250008AB98BB180638BB9D4D188E98883DF9167
:10026000CF910895D5DF2FB7F89488E191E090936E
:1002700099018093980190939B0180939A012FBFDD
:10028000789480E091E088D449D480910E019091D7
:100290000F010097B1F380910E0190910F0101972A
:1002A00090930F0180930E0180910E0190910F01A8
:1002B000009739F75D9AE5CF80E091E041D4E2EE16
:1002C000F0E0808184608083089580910B0190919B
:1002D0000C01009729F0019790930C0180930B017A
:1002E00008950F931F93D8019FB7F89480919C01B4
:1002F0009FBF893008F44CC0E0919A01F0919B01B6
:100300004191F0939B01E0939A0181E0E839F8076D
:1003100031F488E191E090939B0180939A019FB71B
:10032000F89480919C01815080939C019FBFFB01B8
:10033000408388E090E08D939C93E22FF32F9F0100
:10034000285F3F4F88E191E0A0919A01B0919B0115
:100350005D91B0939B01A0939A0141E0A839B40745
:1003600021F490939B0180939A016FB7F894409188
:100370009C01415040939C016FBF5193E217F307DA
:1003800019F75D9880ED97E090930F0180930E012F
:1003900080E01F910F9108951F920F920FB60F9258
:1003A00011242F938F939F93EF93FF938091CE000F
:1003B0009EB3943031F52FB7F89490919C012FBFE4
:1003C0009038F9F0E0919801F09199018083E091E3
:1003D0009801F0919901CF01019690939901809332
:1003E000980121E08839920721F488E191E0928315
:1003F00081839FB7F89480919C018F5F80939C01CB
:100400009FBFFF91EF919F918F912F910F900FBE02
:100410000F901F901895933089F0943028F4913004
:1004200049F1923061F505C09132D1F0923239F53F
:100430001CC022E230E0EEE7F1E025C0813041F05F
:10044000813018F08230D9F406C0E0EAF1E005C04E
:10045000E4EAF1E002C0E2EBF1E0249130E013C005
:1004600029E030E0E0E9F1E00EC024ED30E0E8E919
:10047000F0E009C022E130E0ECE6F1E004C020E069
:1004800030E0E0E0F0E0DA011196FC93EE93C90170
:100490000895982F2AC09093E900981739F0709129
:1004A000EC002091ED005091F00003C0242F762F36
:1004B00050E021FF19C03091EB003E7F3093EB00FC
:1004C0003091ED0032703093ED003091EB003160EF
:1004D0003093EB007093EC002093ED005093F0000C
:1004E0002091EE0027FF07C09F5F9530A0F2809318
:1004F000E90081E0089580E0089580919F0187FFE1
:1005000011C003C08EB38823B1F08091E80082FF50
:10051000F9CF8091E8008B778093E80008958EB33F
:10052000882349F08091E80080FFF9CF8091E800AE
:100530008E778093E80008958091E4009091E50023
:1005400044E62091EC0020FF05C02091E80020FF48
:1005500005C019C02091E80022FD15C02EB322234A
:10056000A1F02530A1F02091EB0025FD12C02091D3
:10057000E4003091E5002817390719F3442359F0B6
:100580004150C901DECF80E0089582E0089583E004
:10059000089581E0089584E008953CD03ED0809194
:1005A000D800982F9F779093D80080688093D800C8
:1005B0008091D8008F7D8093D80084E089BD89B573
:1005C000826089BD09B400FEFDCF1EBA10929D0164
:1005D00080E060E042E05DDF8091E1008E7F80930B
:1005E000E1008091E20081608093E2008091E2006E
:1005F00088608093E2008091E0008E7F8093E0002D
:100600000895E3E6F0E080818E7F808381E080932F
:100610009E01C3CF1092E20008951092E100089568
:100620001F920F920FB60F9211242F933F934F9367
:100630005F936F937F938F939F93AF93BF93EF934A
:10064000FF938091E10082FF0AC08091E20082FF67
:1006500006C08091E1008B7F8093E10036DE8091BF
:10066000E10080FF16C08091E20080FF12C08091FF
:10067000E2008E7F8093E2008091E20080618093AF
:10068000E2008091D80080628093D80019BC1EBA25
:100690008BD18091E10084FF2DC08091E20084FF26
:1006A00029C084E089BD89B5826089BD09B400FE96
:1006B000FDCF8091D8008F7D8093D8008091E1009C
:1006C0008F7E8093E1008091E2008F7E8093E20034
:1006D0008091E20081608093E20080919D018823F7
:1006E00021F48091E30087FF02C084E001C081E033
:1006F0008EBB5AD18091E10083FF21C08091E2003E
:1007000083FF1DC08091E100877F8093E10082E03C
:100710008EBB10929D018091E1008E7F8093E1005D
:100720008091E2008E7F8093E2008091E200806100
:100730008093E20080E060E042E0ABDE35D1FF91E3
:10074000EF91BF91AF919F918F917F916F915F9149
:100750004F913F912F910F900FBE0F901F901895C2
:100760000F931F93DF93CF9300D0CDB7DEB7809167
:10077000F10080939F018091F1008093A0019091FE
:10078000F1008091F100E1EAF1E09093A101818311
:100790009091F1008091F1009093A3018383909157
:1007A000F1008091F1009093A5018583FDD08091A7
:1007B000E80083FFE4C080919F019091A0019530F3
:1007C00009F46BC0963040F4913061F1913070F0D3
:1007D000933009F0D4C026C0983009F4A3C09930F2
:1007E00009F4B2C0963009F0CAC07CC0803809F460
:1007F000C6C0823809F0C3C08091A301877080937E
:10080000E9009091EB001092E9008091E800877F69
:100810008093E80081E095FF80E08093F1001092E2
:10082000F1008BC0882319F0823009F0A8C08F71C5
:10083000823009F0A4C08091A101882341F5209164
:10084000A301277009F49BC02093E9008091EB007D
:1008500080FF1DC08091A001833021F48091EB00C6
:10086000806213C08091EB0080618093EB0081E097
:1008700090E002C0880F991F2A95E2F78093EA0062
:100880001092EA008091EB0088608093EB00109258
:10089000E9008091E800877F53C0882309F06FC08A
:1008A0001091A1011F770FB7F8948091E800877F1E
:1008B0008093E80022DE8091E80080FFFCCF8091E9
:1008C000E3008078812B8093E3008091E3008068CF
:1008D0008093E300112311F083E001C082E08EBB1E
:1008E0000FBF4DC08058823008F049C08091A101EF
:1008F0009091A2016091A301AE014F5F5F4F8BDD2C
:10090000BC01009709F43BC08091E800877F809389
:10091000E80089819A81A7D08091E8008B77809345
:10092000E8002DC0803859F58091E800877F8093DA
:10093000E80080919D018093F1008091E8008E771E
:100940008093E800DADD1BC08823C9F49091A101EF
:100950009230A8F48091E800877F8093E80090931C
:100960009D01CBDD80919D01882321F48091E300DE
:1009700087FF02C084E001C081E08EBB9DDC8091D6
:10098000E80083FF0AC08091EB0080628093EB0057
:100990008091E800877F8093E8000F900F90CF91BF
:1009A000DF911F910F91089508958F929F92BF92AA
:1009B000CF92DF92EF92FF920F931F93DF93CF932B
:1009C0000F92CDB7DEB7E82E4B018A019983B4DDD3
:1009D000B82E99818823C9F5F92E0115110539F032
:1009E000F80120813181821A930AE20EF31ECC2491
:1009F000DD2426C08091E80085FD17C08091E800C5
:100A00008E778093E8000115110551F0F80180817F
:100A100091818C0D9D1D9183808325E0B22E15C0A0
:100A20007DD08ADD882361F00FC0F70181917F01BD
:100A30008093F1000894810891080894C11CD11C8E
:100A400081149104B9F601C0B82E8B2D0F90CF916F
:100A5000DF911F910F91FF90EF90DF90CF90BF90AB
:100A60009F908F900895E82FF92F8091A501909184
:100A7000A6018617970718F4BC0120E036C061155F
:100A80007105D9F78091E8008E778093E800F5CF63
:100A90008EB3882309F43EC08530C1F18091E8000F
:100AA00083FD36C08091E80082FD2AC08091E80075
:100AB00080FF1BC08091F20090E007C0249120933A
:100AC000F10031966150704001966115710519F081
:100AD0008830910598F321E08830910509F020E0F5
:100AE0008091E8008E778093E8006115710581F6AA
:100AF000222371F605C08EB3882361F0853061F042
:100B00008091E80082FFF7CF80E0089583E00895A8
:100B100081E0089582E0089583E008951F938EB3E5
:100B2000882361F01091E90017701092E90080911C
:100B3000E80083FF01C014DE1093E9001F910895BF
:100B4000CF93DF93FC010896DC0185E0ED0119925B
:100B50008A95E9F781E0808784EF91E09287818729
:100B60008181628173819481992311F044E001C0F5
:100B700040E028E030E090E003C09F5F220F331F89
:100B800026173707D0F342609295907F492B61EC8E
:100B900080DCDF91CF9108954F925F926F927F92A8
:100BA0008F929F92AF92BF92CF92DF92EF92FF927D
:100BB0000F931F93DF93CF9300D00F92CDB7DEB783
:100BC0007C016DB67EB68EB3843009F085C0F70126
:100BD00081818093E9008091E80085FF7DC05DB64A
:100BE000472C4781CDB6DEB6C41AD1080FB6F894AB
:100BF000DEBE0FBECDBE0DB71EB70F5F1F4FB02EAE
:100C0000912E19821B821A82C80160E070E050E0C8
:100C100092D0C701BE016F5F7F4F40E098018E0107
:100C20000E5F1F4F5EDB882EF7018185928500974E
:100C300059F081E090E0238534852115310511F0CC
:100C400080E090E06C0102C0CC24DD24F701058136
:100C500016810115110599F04A815B818B2D992D23
:100C6000B80153D0AA24A394009709F4AA24F70149
:100C70004781C8016B2D792D50E054D001C0AA24C2
:100C80008A819B81009701F1882029F4AA2019F418
:100C9000C114D104C9F0F7018185928594878387B7
:100CA00081818093E9008981882311F08093F1008C
:100CB0006A817B818B2D992D40E050E076DE80911A
:100CC000E8008E778093E8009201832F942D0FB671
:100CD000F8949EBF0FBE8DBF0FB6F8947EBE0FBEB8
:100CE0006DBE0F900F900F90CF91DF911F910F91DC
:100CF000FF90EF90DF90CF90BF90AF909F908F903C
:100D00007F906F905F904F900895FB01DC0104C0CD
:100D10008D910190801921F441505040C8F7881BF3
:100D2000990B0895FB01DC0102C001900D92415026
:100D30005040D8F70895DC0101C06D9341505040F8
:080D4000E0F70895F894FFCFDD
:0E0D480000010800001001080000000000007B
:00000001FF
