:1000000097C00000B0C00000AEC00000ACC000004F
:10001000AAC00000A8C00000A6C00000A4C0000044
:10002000A2C00000A0C000009EC00000B8C3000035
:100030009AC0000098C0000096C0000094C0000064
:1000400092C0000090C000008EC000008CC0000074
:100050008AC0000088C0000086C0000020C10000E7
:1000600082C0000080C000007EC000007CC0000094
:100070007AC0000078C0000076C0000074C00000A4
:1000800072C0000070C000006EC000006CC00000B4
:100090006AC0000068C0000005010905A101A100B7
:1000A0000509190129101500250195107501810216
:1000B000050119302935150026FF007508950681C0
:1000C00002C0C01201100100000008EB0343200031
:1000D000000102000109022200010100C0320904EE
:1000E00000000103000000092111010001222B0082
:1000F00007058103080007040309040C034600698F
:10010000007A007A00690000002403460069007A42
:10011000007A006900270073002000470043002098
:100120000074006F002000550053004200000000E2
:1001300011241FBECFEFD2E0DEBFCDBF11E0A0E0A3
:10014000B1E0E0E6FFE002C005900D92AE30B107ED
:10015000D9F711E0AEE0B1E001C01D92AE3AB107AF
:10016000E1F72CD0FBC64CCFCF93DF9384B7877FCA
:1001700084BF28E10FB6F8942093600010926000CD
:100180000FBE80E190E09093CD008093CC0086E09C
:100190008093CA0082E08093C800C9ECD0E0288335
:1001A000539A5A9A8AB180638AB98BB180638BB9AA
:1001B000EBD288E98883DF91CF910895D5DF2FB7FF
:1001C000F8948EE191E090939F0180939E0190932B
:1001D000A1018093A0012FBF789480E091E0E8D541
:1001E00085D4FBCF0895089580E091E0B9D5E2EE83
:1001F000F0E0808184608083089580E091E088C48D
:1002000080910B0190910C01009729F00197909338
:100210000C0180930B0108950F931F93CF93DF93ED
:10022000E8019FB7F8948091A2019FBF883010F138
:10023000AEE0B1E08EE191E0E091A001F091A1018A
:100240005191F093A101E093A00141E0EE39F40750
:1002500021F49093A1018093A0016FB7F89440918D
:10026000A20141504093A2016FBF5D9341E0A631CE
:10027000B40711F7822F932FDC01EEE0F1E088E064
:1002800001900D928150E1F788E090E09983888396
:1002900080E0DF91CF911F910F91089508951F92F3
:1002A0000F920FB60F9211242F938F939F93EF937A
:1002B000FF938091CE009EB3943031F52FB7F89420
:1002C0009091A2012FBF9038F9F0E0919E01F0913A
:1002D0009F018083E0919E01F0919F01CF010196E3
:1002E00090939F0180939E0121E08E39920721F423
:1002F0008EE191E0928381839FB7F8948091A2016F
:100300008F5F8093A2019FBFFF91EF919F918F918B
:100310002F910F900FBE0F901F901895933089F07A
:10032000943028F4913049F1923061F505C0913252
:10033000D1F0923239F51CC022E230E0E5EDF0E078
:1003400025C0813041F0813018F08230D9F406C0E8
:10035000E7EFF0E005C0EBEFF0E002C0E9E0F1E02C
:10036000249130E013C029E030E0E7EEF0E00EC069
:100370002BE230E0E8E9F0E009C022E130E0E3EC14
:10038000F0E004C020E030E0E0E0F0E0DA011196B7
:10039000FC93EE93C901089528E030E040E003C0EB
:1003A0004F5F220F331F28173907D0F3842F829510
:1003B000807F08958093E900EBEEF0E0808181601A
:1003C0008083EDEEF0E010826093EC00408380913A
:1003D000EE00881F8827881F08951092F40080E09F
:1003E0008093E9001092F0001092E8001092ED0066
:1003F0009091EB009E7F9093EB008F5F853081F7AB
:1004000008958091A60187FF11C003C08EB3882391
:10041000B1F08091E80082FFF9CF8091E8008B77FE
:100420008093E80008958EB3882349F08091E80016
:1004300080FFF9CF8091E8008E778093E8000895DF
:1004400084E69091EC0090FF05C09091E80090FF49
:1004500005C01BC09091E80092FD17C09EB3992380
:10046000B1F09EB39530A9F09091EB0095FD13C0CB
:100470009091E10092FFE5CF9091E1009B7F9093F6
:10048000E100882351F08150DCCF80E0089582E0C4
:10049000089583E0089581E0089584E00895AF927F
:1004A000BF92DF92EF92FF920F931F93DF93CF9350
:1004B0000F92CDB7DEB7082F5B017A019983C0DFB9
:1004C000D82E9981882331F5192F1CC08091E8001E
:1004D00085FD10C08091E8008E778093E800E114DC
:1004E000F10421F0F7010995813081F0A9DF88231B
:1004F00049F00FC0F80181918F018093F1000894B9
:10050000A108B108A114B10409F704C075E0D72E01
:1005100001C0D82E8D2D0F90CF91DF911F910F919B
:10052000FF90EF90DF90BF90AF900895282F392F64
:10053000F9018091AC019091AD018617970718F4ED
:10054000BC0190E032C061157105D9F78091E800D7
:100550008E778093E800F5CF8091E80083FD37C067
:100560008091E80082FD2DC08EB38823A1F18EB367
:10057000853079F18091E80080FF17C08091F2000A
:1005800006C091919093F100615070408F5F6115AA
:10059000710511F08830A8F391E0883009F090E0FF
:1005A0008091E8008E778093E80061157105A1F6CF
:1005B000992391F606C08EB3882369F08EB38530F7
:1005C00061F08091E80082FFF6CF80E0089581E03D
:1005D000089583E0089582E0089583E00895282F28
:1005E000392FC9012091AC013091AD012617370791
:1005F00018F4B90130E034C061157105D9F72091C4
:10060000E8002E772093E800F5CF2091E80023FD45
:1006100039C02091E80022FD2FC02EB32223B1F172
:100620002EB3253089F12091E80020FF19C02091D8
:10063000F20008C0FC010196E491E093F1006150E2
:1006400070402F5F6115710511F0283098F331E08B
:10065000283009F030E02091E8002E772093E80060
:100660006115710591F6332381F606C08EB3882398
:1006700069F08EB3853061F08091E80082FFF6CF9B
:1006800080E0089581E0089583E0089582E0089570
:1006900083E008956115710519F51DC02091E800EA
:1006A00023FD2EC02EB3222379F12EB3253051F134
:1006B0002091E80022FFF2CFE82FF92F07C08091A8
:1006C000F1008193CF016150704029F0CF0120915A
:1006D000F2002223A1F72091E8002B772093E80075
:1006E00061157105D9F606C08EB3882369F08EB303
:1006F000853061F08091E80080FFF6CF80E00895BA
:1007000081E0089583E0089582E0089583E00895EC
:1007100040D042D01EBA1092A4011092A30184E0EE
:1007200089BD89B5826089BD09B400FEFDCF809185
:10073000D800982F9F779093D80080688093D80036
:10074000809163008E7F809363008091D8008F7DBD
:100750008093D8008091E0008E7F8093E0008091AC
:10076000E1008E7F8093E1008091E20081608093C0
:10077000E2008091E100877F8093E1008091E200B8
:1007800088608093E2000895C3DF81E08093A50133
:1007900008951092E20008951092E10008951F92CA
:1007A0000F920FB60F9211242F933F934F935F93A5
:1007B0006F937F938F939F93AF93BF93EF93FF9329
:1007C0008091E10080FF1BC08091E20080FF17C094
:1007D0008091E1008E7F8093E1008091E2008E7F26
:1007E0008093E2008091E20080618093E20080913A
:1007F000D80080628093D80019BC1EBAF4DC8091C6
:10080000E10084FF29C08091E20084FF25C084E0DC
:1008100089BD89B5826089BD09B400FEFDCF809194
:10082000D8008F7D8093D8008091E1008F7E8093E7
:10083000E1008091E2008F7E8093E2008091E200EF
:1008400081608093E2008091A401882311F084E00C
:1008500001C081E08EBBC6DC8091E10083FF22C035
:100860008091E20083FF1EC08091E100877F80932A
:10087000E10082E08EBB1092A4018091E1008E7FA6
:100880008093E1008091E2008E7F8093E20080916E
:10089000E20080618093E200A0DD80E060E042E061
:1008A00089DD23D18091E10082FF0AC08091E200BE
:1008B00082FF06C08091E1008B7F8093E100A0DC85
:1008C000FF91EF91BF91AF919F918F917F916F9128
:1008D0005F914F913F912F910F900FBE0F901F90FE
:1008E00018951F93DF93CF9300D0CDB7DEB7E6EA1C
:1008F000F1E08091F100819381E0EE3AF807C9F7C9
:100900008091A6019091A701953009F472C09630AC
:1009100040F4913099F1913070F0933009F0D0C0EB
:100920002DC0983009F4A2C0993009F4B1C09630B6
:1009300009F0C6C07CC0803821F0823809F0C0C000
:1009400005C08091A301882371F40EC08091AA0193
:1009500087708093E9009091EB0081E095FF80E043
:100960001092E90001C081E09091E800977F909398
:10097000E8008093F1001092F10083C0882319F001
:10098000823009F09DC08F71823009F09AC0809149
:10099000A801882341F52091AA01277009F491C08C
:1009A0002093E9008091EB0080FF8BC08091A7012C
:1009B000833021F48091EB00806213C08091EB00C2
:1009C00080618093EB0081E090E002C0880F991F66
:1009D0002A95E2F78093EA001092EA008091EB00FA
:1009E00088608093EB001092E9008091E800877F97
:1009F0004BC0882309F064C01091A8018091E800E1
:100A0000877F8093E800FDDC04C08EB3882309F45F
:100A100058C08091E80080FFF8CF1F7711F083E085
:100A200001C082E08EBB10681093E3004AC080587A
:100A3000823008F045C08091A8019091A901609191
:100A4000AA01AE014F5F5F4F69DCBC010097C9F19D
:100A50008091E800877F8093E80089819A81BFDDDB
:100A60008091E8008B778093E8002BC0803841F5B7
:100A70008091E800877F8093E8008091A4018093B3
:100A8000F1008091E8008E778093E800BADC19C00D
:100A90008823B1F49091A801923098F48091E800F5
:100AA000877F8093E8009093A401ABDC8091A40140
:100AB000882311F084E001C083E08EBB95DB01C088
:100AC0009CDB8091E80083FF0AC08091EB0080628C
:100AD0008093EB008091E800877F8093E8000F907F
:100AE0000F90CF91DF911F91089508951F938EB3BA
:100AF000882361F01091E90017701092E90080914D
:100B0000E80083FF01C0EDDE1093E9001F91089516
:100B10006F927F928F929F92AF92BF92CF92DF920D
:100B2000EF92FF920F931F93DF93CF9300D00F921A
:100B3000CDB7DEB77C016DB67EB68091E80083FF4D
:100B4000F8C0F701808190E02091AA013091AB01BB
:100B50002817390709F0EDC08091A701833009F407
:100B600099C0843030F4813071F0823009F0E1C0F6
:100B7000C8C08A3009F4AEC08B3009F498C08930FF
:100B800009F0D7C04CC08091A601813A09F0D1C0CC
:100B9000CDB6DEB69DB68D2C8091E800877F809320
:100BA000E8001B821A828091A8010091A901898323
:100BB000F7014781C41AD1080FB6F894DEBE0FBE04
:100BC000CDBE0894C11CD11CBC2CAD2CC60160E06C
:100BD00070E050E0BCD1402F4150C701BE016F5FB3
:100BE0007F4F96018E010E5F1F4F16DBF7012581A7
:100BF00036812115310529F04781C901B60150E040
:100C00009DD11092E9006A817B818B2D9A2D8EDC1B
:100C10008091E8008B778093E800940133C0809145
:100C2000A601813209F085C0CDB6DEB6BDB6AD2CC9
:100C30008091E800877F8093E8000091AC011091DB
:100C4000AD019090A8018090A9018DB79EB7801B3F
:100C5000910B0FB6F8949EBF0FBE8DBFCDB6DEB61A
:100C60000894C11CD11CC601B80114DD482D4150A7
:100C7000C701692D960112DB8091E8008E77809381
:100C8000E8009501832F922F0FB6F8949EBF0FBEF8
:100C90008DBF4FC08091A601813A09F04AC0809172
:100CA000E800877F8093E800F70180853AC0809153
:100CB000A601813209F03DC08091E800877F8093D2
:100CC000E8009091A80181E0992309F480E0F70100
:100CD00080872EC08091A601813259F58091E8006D
:100CE000877F8093E8008091A8019091A90180708E
:100CF00036E0969587953A95E1F7F70192878187D7
:100D000017C08091A601813AA1F48091E800877F05
:100D10008093E800F7018185928596958795969551
:100D200087958093F1008091E8008E778093E800AA
:100D300068DB0FB6F8947EBE0FBE6DBE0F900F90AD
:100D40000F90CF91DF911F910F91FF90EF90DF9067
:100D5000CF90BF90AF909F908F907F906F900895AD
:100D60000F931F93CF93DF93FC010896DC0185E07E
:100D7000ED0119928A95E9F781E0808784EF91E08F
:100D8000928781872281338101818481882311F0B8
:100D900014E001C010E0C901FFDA412F482B426086
:100DA000802F61EC07DBDF91CF911F910F910895A8
:100DB0004F925F926F927F928F929F92AF92BF926B
:100DC000CF92DF92EF92FF920F931F93DF93CF9317
:100DD00000D00F92CDB7DEB77C016DB67EB68EB374
:100DE000843009F085C0F70181818093E90080910A
:100DF000E80085FF7DC05DB6472C4781CDB6DEB6E5
:100E0000C41AD1080FB6F894DEBE0FBECDBE0DB722
:100E10001EB70F5F1F4FB02E912E19821B821A82B0
:100E2000C80160E070E050E092D0C701BE016F5F82
:100E30007F4F40E098018E010E5F1F4FEDD9882E45
:100E4000F70181859285009759F081E090E0238534
:100E500034852115310511F080E090E06C0102C06D
:100E6000CC24DD24F701058116810115110599F0C7
:100E70004A815B818B2D992DB80153D0AA24A3946C
:100E8000009709F4AA24F7014781C8016B2D792D39
:100E900050E054D001C0AA248A819B81009701F1BF
:100EA000882029F4AA2019F4C114D104C9F0F7014B
:100EB000818592859487838781818093E9008981E8
:100EC000882311F08093F1006A817B818B2D992D0D
:100ED00040E050E0E4DA8091E8008E778093E8000B
:100EE0009201832F942D0FB6F8949EBF0FBE8DBF35
:100EF0000FB6F8947EBE0FBE6DBE0F900F900F9090
:100F0000CF91DF911F910F91FF90EF90DF90CF90E5
:100F1000BF90AF909F908F907F906F905F904F9019
:100F20000895FB01DC0104C08D910190801921F42A
:100F300041505040C8F7881B990B0895FB01DC0114
:100F400002C001900D9241505040D8F70895DC0145
:100F500001C06D9341505040E0F70895F894FFCFE1
:0E0F600000010800001601080000000000005B
:00000001FF
