:100000000C9464000C948C000C948C000C948C0068
:100010000C948C000C948C000C948C000C948C0030
:100020000C948C000C948C000C948C000C944A035F
:100030000C948C000C948C000C948C000C948C0010
:100040000C94670C0C948C000C94510E0C948C0046
:100050000C948C000C948C000C948C000C948C00F0
:100060000C948C000C948C000000000024002700ED
:100070002A0000000000250028002B0000000000DE
:1000800023002600290004040404040404040202DA
:100090000202020203030303030301020408102007
:1000A0004080010204081020010204081020000012
:1000B0000007000201000003040600000000000029
:1000C00000004504D3074D0F11241FBECFEFD8E029
:1000D000DEBFCDBF11E0A0E0B1E0E2E5F3E202C097
:1000E00005900D92AE3EB107D9F713E0AEEEB1E048
:1000F00001C01D92A837B107E1F710E0C8ECD0E0CD
:1001000004C02297FE010E94A311C23CD107C9F787
:100110000E94870F0C94A7110C940000CF93DF93DB
:10012000BC018230910510F462E070E0A09176038A
:10013000B0917703ED01E0E0F0E040E050E021C055
:10014000888199818617970769F48A819B81309706
:1001500019F09383828304C090937703809376038E
:10016000FE0134C06817790738F44115510519F0BC
:100170008417950708F4AC01FE018A819B819C01DC
:10018000E9012097E9F641155105A9F1CA01861B3D
:10019000970B049708F4BA01E0E0F0E02AC08D91D3
:1001A0009C91119784179507F9F46417750781F4EA
:1001B00012968D919C911397309719F093838283B7
:1001C00004C09093770380937603FD0132964CC070
:1001D000CA01861B970BFD01E80FF91F619371930C
:1001E00002978D939C9340C0FD01828193819C0175
:1001F000D9011097A1F68091740390917503892B12
:1002000041F48091D5019091D6019093750380932C
:1002100074034091D7015091D8014115510541F423
:100220004DB75EB78091D3019091D401481B590B13
:100230002091740330917503CA01821B930B8617BA
:10024000970780F0AB014E5F5F4F8417950750F022
:10025000420F531F5093750340937403F901619348
:10026000719302C0E0E0F0E0CF01DF91CF910895FB
:10027000CF93DF93009709F450C0EC0122971B82C3
:100280001A82A0917603B0917703109709F140E0AC
:1002900050E0AC17BD0708F1BB83AA83FE01219192
:1002A0003191E20FF31FAE17BF0779F48D919C9146
:1002B0001197280F391F2E5F3F4F398328831296DD
:1002C0008D919C9113979B838A834115510571F4FD
:1002D000D0937703C093760320C012968D919C91A2
:1002E0001397AD01009711F0DC01D3CFFA01D3834E
:1002F000C28321913191E20FF31FCE17DF0769F41A
:1003000088819981280F391F2E5F3F4FFA01318371
:1003100020838A819B8193838283DF91CF9108958B
:10032000FB01DC014150504048F001900D9200204B
:10033000C9F701C01D9241505040E0F70895FC01FB
:1003400081E090E00190061609F4CF010020D1F77A
:1003500001970895FB0151915523A9F0BF01DC01DC
:100360004D9145174111E1F759F4CD01019000205D
:1003700049F04D9140154111C9F3FB014111EFCFF7
:1003800081E090E001970895FC018091EE018C30AE
:1003900090F480838F5F8093EE01815090E0FC01A8
:1003A000EE0FFF1FE80FF91FE151FE4F88EB9BE0B6
:1003B0009283818308958FEF80830895DC018C916F
:1003C00090E0FC01EE0FFF1FE80FF91FE151FE4F17
:1003D00080818F7B80838C916CE00E94311190E052
:1003E000AC01440F551F480F591F440F551F440FB0
:1003F000551F20E030E0C901840F951FFC01EE0F6E
:10040000FF1FE80FF91FE151FE4F808186FD05C0F7
:100410002F5F3F4F2C30310571F70895FC0120818B
:100420002C30B8F58181992787FD909548E850E0F8
:10043000481B590B440F551F440F551F6417750770
:1004400084F08281992787FD909548E552E0481B0A
:10045000590B440F551F440F551F641775070CF4B3
:10046000AB0142505040CA01AA2797FDA095BA2F70
:10047000880F991FAA1FBB1F4FB7F89430E0F901EE
:10048000EE0FFF1FE20FF31FE151FE4F92838183B6
:100490004FBF0895FC01808190E0FC01EE0FFF1F2B
:1004A000E80FF91FE151FE4F808182958695869570
:1004B000817009F081E00895AF92BF92CF92DF92F0
:1004C000EF92FF920F931F93CF93DF93EC019B0169
:1004D00082E0603278070CF048C077FF03C020E06C
:1004E00030E005C0653B710514F024EB30E000D02E
:1004F00000D0B901882777FD8095982F298133276F
:1005000027FD3095E8E8AE2EB12CA21AB30AAA0C4A
:10051000BB1CAA0CBB1CCC24B7FCC094DC2CEA810D
:10052000FF27E7FDF09528E532E02E1B3F0B220F59
:10053000331F220F331F442737FD4095542FEDB74B
:10054000FEB7218332834383548320E030E040E0D0
:1005500050E004EBE02EF12C012D112D0E94C9106A
:100560009B010F900F900F900F90CE01B9010E9448
:100570000E02DF91CF911F910F91FF90EF90DF90CE
:10058000CF90BF90AF900895CF92DF92EF92FF92FD
:100590001F93CF93DF93EC01162F7A0169018881B5
:1005A0008C3008F064C0862F61E00E94D30D8881F2
:1005B00090E0FC01EE0FFF1FE80FF91FE151FE4F25
:1005C0001F738081807C812B808380E292E08E1972
:1005D0009F0964E070E00E943D11698380E699E024
:1005E0008C199D0964E070E00E943D116A83A88126
:1005F0008A2F6CE00E943111682F70E0AB01440F2C
:10060000551F460F571F440F551F440F551F20E01D
:1006100030E0C901840F951FFC01EE0FFF1FE80FAA
:10062000F91FE151FE4F808186FD15C02F5F3F4FBE
:100630002C30310571F724C01092800082E0809345
:1006400081001092850010928400B19A80916F0011
:10065000826080936F008A2F90E0FC01EE0FFF1FF5
:10066000E80FF91FE151FE4F80818064808388810B
:10067000DF91CF911F91FF90EF90DF90CF90089581
:10068000672BD1F2E8CF40E252E020E639E00E9449
:10069000C40208951F920F920FB60F9211242F9348
:1006A0003F934F935F936F937F938F939F93AF93FA
:1006B000BF93EF93FF938091130287FF05C01092C1
:1006C0008500109284002BC020911302332727FD50
:1006D00030958091EE0190E02817390704F580915C
:1006E0001302992787FD9095FC01EE0FFF1FE80F7D
:1006F000F91FE151FE4F808186FF11C080911302E6
:10070000992787FD9095FC01EE0FFF1FE80FF91F59
:10071000E151FE4F80818F7360E00E94F90D80915E
:1007200013028F5F8093130220911302332727FD5A
:1007300030958091EE0190E0281739070CF04EC0FB
:10074000809113028C300CF049C0209184003091CC
:10075000850080911302992787FD9095FC01EE0F8B
:10076000FF1FE80FF91FE151FE4F81819281280F91
:10077000391F3093890020938800809113029927B4
:1007800087FD9095FC01EE0FFF1FE80FF91FE15167
:10079000FE4F808186FF2AC080911302992787FD32
:1007A0009095FC01EE0FFF1FE80FF91FE151FE4F7E
:1007B00080818F7361E00E94F90D18C080E49CE98C
:1007C00005C08091840090918500049690938900E3
:1007D000809388008FEF8093130208C0809184007B
:1007E0009091850084549C4948F3EBCFFF91EF91A1
:1007F000BF91AF919F918F917F916F915F914F9139
:100800003F912F910F900FBE0F901F901895FC01F4
:10081000603DA9F0613D28F4603959F0603CA1F4D5
:100820000BC0603E19F0643F79F40CC052A741A799
:10083000089554A743A7089556A745A7089550AB18
:1008400047A7089552AB41AB0895FC0150AF47ABA9
:100850000895FC01138214821582DC0180E0169653
:100860001C9216978F5F11968032C9F716A210A6B8
:1008700017A203A8F4A9E02D309709F0099508956F
:10088000FC0110820E942904089584E192E00E94F4
:10089000400408954F925F926F927F928F929F9241
:1008A000AF92BF92CF92DF92EF92FF920F93DF93BE
:1008B000CF9300D0CDB7DEB72B017A013A832983DD
:1008C0008DE061E00E94D30D00E089819A813C01B6
:1008D000882477FC8094982C5701CC24B7FCC094D2
:1008E000DC2C11C0C401B3010E94BD0C8DE061E09D
:1008F0000E94F90DC601B5010E94BD0C8DE060E0BB
:100900000E94F90D0F5F802F90E08415950554F338
:100910000F900F90CF91DF910F91FF90EF90DF90AC
:10092000CF90BF90AF909F908F907F906F905F908F
:100930004F9008950F931F938C018DE061E00E940A
:10094000D30DC80162E070E048EC50E020E931E0EE
:100950000E944A046CE271E080E090E00E94BD0CCD
:10096000C80162E070E041E050E024E030E00E9425
:100970004A046CE271E080E090E00E94BD0CC80186
:1009800062E070E048EC50E020E931E00E944A0467
:100990001F910F910895EF92FF920F931F938A0179
:1009A00091E6E92E93E0F92E70E06F707070606947
:1009B000C70140E050E00E94B610602F70E06F77F2
:1009C0007070C70140E050E00E94B610000F012F88
:1009D000001F110BC701B80140E050E00E94B610A3
:1009E0001F910F91FF90EF9008950F931F9301E6D1
:1009F00013E0C80169EF70E040E050E00E94B610DB
:100A0000C80162E070E040E050E00E94B610C8010A
:100A100062E070E040E050E00E94B6101F910F913C
:100A2000089581E693E067EF70E040E050E00E94B7
:100A3000B610089581E693E060EF70E040E050E08A
:100A40000E94B6100895EF92FF920F931F938C01AE
:100A500031E6E32E33E0F32EBC016F777070C701EF
:100A600040E050E00E94B610000F012F001F110B54
:100A70000F771070C701B80140E050E00E94B61037
:100A80001F910F91FF90EF900895EF92FF920F93B7
:100A90001F93CF93DF93162FE42E022FF32E0E9485
:100AA0001A0581E693E0612F40E050E00E946E104D
:100AB000202F3F2DC901EC0110E005C0899190E085
:100AC0000E9423051F5F1E15C8F30E941105DF91C8
:100AD000CF911F910F91FF90EF9008959A01FA0125
:100AE00001900020E9F73197E41BF50B4E2F0E948F
:100AF00045050895AB0161E70E946E0508950F93C7
:100B00001F938A0170E06F707070606E81E693E0F1
:100B100040E050E00E94B610C8010E9423051F91DA
:100B20000F9108951F93CF93DF93EC018881882361
:100B300061F10E941A0581E693E069E770E040E008
:100B400050E00E94B610E981FA8181E693E060816D
:100B500040E050E00E946E10E981FA8181E693E066
:100B6000618140E050E00E946E1012E009C0E9810E
:100B7000FA81E10FF11D808190E00E9423051F5F43
:100B800088811817A0F30E941105DF91CF911F9162
:100B900008951F93CF93DF93EC018E81813731F05D
:100BA000893789F5CE010E94920536C08DA99EA98C
:100BB000892B91F18FA198A5019762E070E00E94C6
:100BC0003D11162F862F90E00E948E00AC01DC01B3
:100BD00021E030E011C0FE01E20FF11D96819C93EF
:100BE0002F5FFE01E20FF11D86818795882787958B
:100BF000890F8D932F5F3F5F311768F3EDA9FEA931
:100C0000CA01099509C0EFA9F8AD309729F06FA185
:100C100061502796AE010995DF91CF911F910895FC
:100C2000CF93DF93EC0181E693E00E940A0FAC01C1
:100C30008EA1882391F0473F510529F41EA2CE01D1
:100C40000E94C90593C08FA198A5FE01E80FF91F66
:100C50004683019698A78FA389C08B81882309F4C6
:100C600046C0403851050CF042C081508B83FE01D4
:100C7000E80FF11D4683882309F078C08C81882312
:100C800009F474C0803D49F1813D28F4803959F060
:100C9000803C59F51FC0803E19F0843F31F513C0E8
:100CA000E9A5FAA502C0EBA5FCA53097F1F06E818D
:100CB00070E07695762F6627779567958F81680F18
:100CC000711D8D8111C0E9A9FAA9309771F06E816B
:100CD0008F8109C0EDA5FEA502C0EFA5F8A9309748
:100CE00021F06E818D8170E009951C823FC0403FEC
:100CF000510514F09A0106C09A01207F3070842FAC
:100D00008F708D83203E3105F1F0213E310554F482
:100D1000203C3105D1F0203D3105B9F020393105B5
:100D200029F511C0243F310571F0253F310524F428
:100D3000203F3105D9F40DC0293F310599F02F3FEF
:100D40003105A1F40BC082E001C081E08B832C83CC
:100D50000DC081E08EA318A61FA208C0CE010E947C
:100D6000290404C084E192E00E94F504DF91CF9150
:100D7000089581E693E00E94DF0E0895AF92BF923E
:100D8000CF92DF92EF92FF920F931F93CF93DF9357
:100D90008C01D62EC72EB42EA22E862F972F60E060
:100DA00071E00E94AA01EC018D2D9C2D6FE270E094
:100DB0000E949F01209771F07C010894E11CF11CB6
:100DC000E114F10439F09E012E5F822F8E19D801B3
:100DD0008C930EC0AD2DBC2DFD0101900020E9F7D4
:100DE000ED19EF5FD801EC932D2D3C2DC9017C014D
:100DF000F801808190E00E948E00FC01D8011296DB
:100E00009C938E9311978C91E80FF11D108211968F
:100E1000ED91FC911297B0821196ED91FC91129791
:100E2000A18211968D919C9112974C9150E0425065
:100E300050400296B7010E949001DF91CF911F911F
:100E40000F91FF90EF90DF90CF90BF90AF900895FB
:100E50000F931F938C0181E693E00E94820EC801DC
:100E60000E949A046CE271E080E090E00E94BD0C68
:100E7000C8010E94F504C8010E9492051F910F91BC
:100E800008950F931F93CF93DF93782FA62F83306E
:100E900008F055C090E00196B82FBB0FBB0FBB0FF9
:100EA0000197482F440F440F440F51E060E0CA2FD0
:100EB000D0E001E010E021C0842F82508C3018F087
:100EC0008E508630C0F4242F30E0F901E75AFD4FF0
:100ED0008081823080F4652BF901EE0FFF1FEC5802
:100EE000FD4F11821082852F90E08C239D23892B4A
:100EF00011F011830083550F4F5F4B17E8F27723F2
:100F000061F4862F8C7FF8942BB1982F90959223C3
:100F10008A23982B9BB9789412C0962F90956A23B8
:100F2000713039F4F89485B19823962B95B978945B
:100F300006C0F89488B19823962B98B97894DF91DD
:100F4000CF911F910F910895482F883018F5209167
:100F5000510230915202672B81F481E090E002C08F
:100F6000880F991F4A95E2F7809590952823392399
:100F70003093520220935102089581E090E002C024
:100F8000880F991F4A95E2F7282B392B309352028C
:100F9000209351020895833028F4E82FF0E0ED5AB1
:100FA000FD4F60830895CF93DF93C0EBD2E0CE0175
:100FB0000E94C401239682E0C43DD807C1F7DF91A7
:100FC000CF9108950F931F93CF93DF93982F8B01A9
:100FD000883170F5C82FD0E0FE01E75AFD4FE0815F
:100FE000E33091F0E43021F592509C30D8F49E012A
:100FF00022503040C901880F991F820F931F8055DE
:101000009D4F0E945C020EC0282F22502C3018F0F9
:101010008051863038F4903108F0922F892FB80132
:101020000E94730DCC0FDD1FCC58DD4F1983088350
:10103000DF91CF911F910F9108950E94AF0C2091E5
:10104000AC023091AD024091AE025091AF02621BF2
:10105000730B840B950B655F714080409040A8F046
:1010600060E080915002882309F461E060935002AF
:101070008DE00E94F90D0E94AF0C6093AC0270935A
:10108000AD028093AE029093AF020895CF92DF92AB
:10109000EF92FF920F931F93CF93DF93D82E8B0184
:1010A000EEEFCE2EC80E8BE08C15A8F064307105E3
:1010B00091F08D2D90E00297EC01CC0FDD1FC80F51
:1010C000D91FC055DD4FCE010E944A02882319F076
:1010D000CE010E94DE014D2D40514830B0F42091E8
:1010E0005102309152020230110509F013C181E022
:1010F00090E0042E02C0880F991F0A94E2F7282B73
:10110000392B30935202209351029BE09C1510F42E
:10111000463048F52D2D30E0ED2DE695E695E69527
:101120000115110581F4F0E0EF58FD4F2770307084
:1011300081E090E002C0880F991F2A95E2F7208194
:10114000282B208310C0F0E0EF58FD4F277030703F
:1011500081E090E002C0880F991F2A95E2F7809500
:10116000208182238083ED2CFF24F701EE0FFF1FE7
:10117000EC58FD4F1182108202301105C1F003308E
:10118000110544F40115110589F10130110509F02B
:10119000BAC04AC00430110509F483C004301105F7
:1011A0000CF461C00630110509F0ADC0A0C0483094
:1011B00008F0BDC0EBE0EC1510F4463088F4FFE019
:1011C000FD1510F08D2D01C08C2D60E00E94D30D17
:1011D0008FE08D1508F0CD2C8C2D60E00E94F90D6C
:1011E000E9E5F2E0EE0EFF1E82E03AC0FBE0FC15FE
:1011F00018F4463008F09BC08FE08D1510F08D2D4F
:1012000001C08C2D60E00E94D30D9FE09D1508F079
:10121000CD2C8C2D60E00E94F90DE9E5F2E0EE0E98
:10122000FF1EF701108283C0FBE0FC1518F4463066
:1012300008F07DC08FE08D1510F08D2D01C08C2D34
:1012400060E00E94F90D9FE09D1508F0CD2C8C2DDB
:1012500061E00E94D30DE9E5F2E0EE0EFF1E81E0B1
:10126000F701808364C0FBE0FC1518F4463008F0F9
:101270005EC08FE08D1510F08D2D01C08C2D61E0CA
:101280000E94D30D9FE09D1508F0CD2C8C2D60E0C1
:1012900070E00E94730DE9E5F2E0EE0EFF1E83E0C0
:1012A000DFCFFBE0FC1508F442C0F701E75AFD4F21
:1012B00084E08083870102501040E801CC0FDD1FDD
:1012C000C00FD11FC055DD4FCE010E944A028823B6
:1012D00049F48FE08D1508F47801CE01B7010E9422
:1012E000430325C084E192E065E071E010C0E9E5C8
:1012F000F2E0EE0EFF1E86E0F701808384E192E0CB
:1013000065E271E004C084E192E060E471E00E9473
:101310007A050DC081E090E0042E02C0880F991F6D
:101320000A94E2F78095909528233923EACEDF913D
:10133000CF911F910F91FF90EF90DF90CF90089584
:101340009F92AF92BF92CF92DF92EF92FF920F9354
:101350001F93CF93DF93262FFA018D3609F4E0C057
:101360008E3638F4893609F42EC18B3609F047C120
:1013700082C0803739F08A3709F445C08F3609F0CA
:101380003EC159C0653008F43AC1D080A180C28006
:101390009380B4808D2D82508C3008F030C1ED2CBC
:1013A000FF24870102501040E801CC0FDD1FC00F61
:1013B000D11FC055DD4FCE010E944A02882319F08B
:1013C000CE010E94DE018FE08D1508F087014C2DC3
:1013D00050E05695542F4427579547954A0D511D77
:1013E0002B2D30E03695322F222737952795290D62
:1013F000311DCE01B8010E94C4028D2D64E070E061
:101400000E944608FCC0623078F0818190E0969599
:10141000982F8827979587952081820F911D90930B
:10142000DA018093D901EBC084E192E061E571E0DB
:101430000E947A05E4C0623008F4E1C08181682F1F
:1014400070E02230A1F0828190E09695982F882755
:1014500097958795682B792B233049F02381922F1C
:101460009295990F990F907C80E0682B792B808161
:101470000E94E207C4C081E693E060EF0E943A0F49
:1014800081E693E06CE60E943A0F1EEF00EF1C30FD
:1014900010F00630A0F481E693E060E00E943A0F7D
:1014A00081E693E061E00E943A0F81E693E061E01B
:1014B0000E943A0F81E693E061E00E943A0F083003
:1014C00050F481E693E062E00E943A0F81E693E0F7
:1014D0006AE00E943A0F1C3010F00630B0F481E64A
:1014E00093E063E00E943A0F81E693E068E00E9497
:1014F0003A0F1C3050F481E693E064E00E943A0F0A
:1015000081E693E06EE00E943A0F81E693E06FE798
:101510000E943A0F1F5F0F5F163109F0B8CF6AC003
:10152000662309F46CC0008181E693E060EF0E94BD
:101530003A0F81E693E06EE60E943A0F81E693E06F
:10154000602F0E943A0F083108F054C0C02FD0E03D
:10155000FE01E75AFD4F81E693E060810E943A0F59
:101560008E01000F111F0C581D4FF80160816F771D
:1015700081E693E00E943A0FF80160817181CB010E
:101580008078892B49F0660F672F661F770B6F777E
:1015900081E693E00E943A0FCC0FDD1FCC58DD4F5F
:1015A00028813981C9018070907C892B19F1330F12
:1015B000220B330F322F221F622F6F7781E693E0C9
:1015C0000E943A0F17C081E693E060EF0E943A0F45
:1015D00081E693E06AE60E943A0F10EF183010F0AF
:1015E0006FE701C0612F81E693E00E943A0F1F5F11
:1015F0001830A1F781E693E067EF0E943A0FDF9180
:10160000CF911F910F91FF90EF90DF90CF90BF90FF
:10161000AF909F9008951F93CF93DF93282F162F9D
:10162000C82FD0E0FE01EF58FD4F808118234423DE
:1016300031F4FE01EA5AFD4F8081811751F084E1B7
:1016400092E0622F412F50E00E94CB04CA5ADD4F36
:101650001883DF91CF911F9108951F93CF93DF934C
:1016600084E192E061E671E042E022E00E94BE0681
:1016700084E192E060EE42EE57E00E94070484E1CC
:1016800092E060E941E457E00E94070484E192E0BF
:1016900060EC44EA57E00E94070484E192E060EDC8
:1016A0004BEC57E00E94070484E192E064EF46E4CB
:1016B00058E00E94070484E192E060EF40EA59E0BC
:1016C0000E94250410E0812F8051883020F4812F62
:1016D00062E070E003C0812F61E070E00E94460884
:1016E0001F5F183181F7109252021092510284E16B
:1016F00092E040E051EE60E070E00E942807C0E018
:10170000D0E08C2FFE01EF58FD4FE081CC2321F477
:1017100069B16E236C7F08C0C13021F463B16E23C0
:101720006F7302C066B16E2341E00E940B0B2196DD
:10173000C330D10531F70E94AF0C6093AC027093B7
:10174000AD028093AE029093AF028DE061E00E9403
:10175000D30DDF91CF911F9108958091530288237B
:1017600049F069B18091710268236C7F80E040E0AC
:101770000E940B0B80915402882349F063B1809141
:10178000720268236F7381E040E00E940B0B80912E
:101790005502882341F066B180917302682382E08C
:1017A00040E00E940B0B0895AF92BF92CF92DF9260
:1017B000EF92FF920F931F93CF93DF930E94AD0B95
:1017C00084E192E00E94B90690934F0280934E020A
:1017D000181619063CF480914D02882319F481E013
:1017E00080934D0280914D02882379F40E941D0858
:1017F0000CC084E192E00E94100684E192E00E9415
:10180000B90690934F0280934E0280914E029091C0
:101810004F02892B71F70E94AF0C6093A402709362
:10182000A5028093A6029093A702A090A802B09070
:10183000A902C090AA02D090AB022091D9013091A8
:10184000DA0179010027F7FC0095102F6A197B094E
:101850008C099D09E616F7060807190768F5EA0CD2
:10186000FB1C0C1D1D1DE092A802F092A902009322
:10187000AA021093AB02C9E5D2E010EF1830C0F411
:1018800088818230A9F48091510290915202012EF8
:1018900002C0959587950A94E2F780FF09C0812FD1
:1018A0000E94510DAC0184E192E0612F0E947F05FE
:1018B0001F5F2196183011F7DF91CF911F910F9183
:1018C000FF90EF90DF90CF90BF90AF9008951F9260
:1018D0000F920FB60F9211242F933F938F939F93E4
:1018E000AF93BF938091D8029091D902A091DA0270
:1018F000B091DB023091DC020196A11DB11D232FB6
:101900002D5F2D3720F02D570196A11DB11D20937D
:10191000DC028093D8029093D902A093DA02B093AC
:10192000DB028091D4029091D502A091D602B091B1
:10193000D7020196A11DB11D8093D4029093D502C8
:10194000A093D602B093D702BF91AF919F918F9190
:101950003F912F910F900FBE0F901F9018958FB74A
:10196000F8942091D8023091D9024091DA02509136
:10197000DB028FBFB901CA0108959B01AC017FB79B
:10198000F8948091D4029091D502A091D602B091A2
:10199000D70266B5A89B05C06F3F19F00196A11D3F
:1019A000B11D7FBFBA2FA92F982F8827860F911DB1
:1019B000A11DB11D62E0880F991FAA1FBB1F6A9568
:1019C000D1F7BC012DC0FFB7F8948091D40290915B
:1019D000D502A091D602B091D702E6B5A89B05C06A
:1019E000EF3F19F00196A11DB11DFFBFBA2FA92F1E
:1019F000982F88278E0F911DA11DB11DE2E0880F41
:101A0000991FAA1FBB1FEA95D1F7861B970B885E0B
:101A10009340C8F2215030404040504068517C4FC4
:101A2000211531054105510571F60895789484B565
:101A3000826084BD84B5816084BD85B5826085BDCA
:101A400085B5816085BDEEE6F0E0808181608083B0
:101A5000E1E8F0E010828081826080838081816093
:101A60008083E0E8F0E0808181608083E1EBF0E05A
:101A7000808184608083E0EBF0E0808181608083FE
:101A8000EAE7F0E0808184608083808182608083E7
:101A90008081816080838081806880831092C10012
:101AA0000895982F8E3008F09E5097708091DB013A
:101AB0008295880F880F807C892B80937C00809191
:101AC0007A00806480937A0080917A0086FDFCCF52
:101AD0002091780040917900942F80E030E0282B0D
:101AE000392BC90108951F93CF93DF93182FEB0172
:101AF00061E00E94D30D209709F44AC0CF3FD10581
:101B000009F449C0E12FF0E0E255FF4F84918330A2
:101B1000C1F0843028F4813051F08230B1F50CC02E
:101B2000863019F1873049F1843079F514C084B5D5
:101B3000806884BDC7BD33C084B5806284BDC8BD24
:101B40002EC080918000806880938000D0938900AF
:101B5000C093880024C080918000806280938000C0
:101B6000D0938B00C0938A001AC08091B000806827
:101B70008093B000C093B30012C08091B000806227
:101B80008093B000C093B4000AC0C038D1051CF4E3
:101B9000812F60E002C0812F61E00E94F90DDF918A
:101BA000CF911F910895482F50E0CA0186569F4F4C
:101BB000FC0124914A575F4FFA0184918823C1F0B8
:101BC000E82FF0E0EE0FFF1FE859FF4FA591B49109
:101BD000662341F49FB7F8948C91209582238C93CF
:101BE0009FBF08959FB7F8948C91822B8C939FBFD1
:101BF0000895482F50E0CA0182559F4FFC0124915F
:101C0000CA0186569F4FFC0134914A575F4FFA0133
:101C10009491992309F444C0222351F1233071F0A7
:101C2000243028F42130A1F0223011F514C02630E0
:101C3000B1F02730C1F02430D9F404C08091800085
:101C40008F7703C0809180008F7D8093800010C0CB
:101C500084B58F7702C084B58F7D84BD09C0809123
:101C6000B0008F7703C08091B0008F7D8093B0006B
:101C7000E92FF0E0EE0FFF1FEE58FF4FA591B49152
:101C8000662341F49FB7F8948C91309583238C930D
:101C90009FBF08959FB7F8948C91832B8C939FBF1F
:101CA00008951F920F920FB60F9211242F933F9316
:101CB0004F938F939F93EF93FF934091C600E091D2
:101CC0005D03F0915E0331969F012F77307031975D
:101CD00080915F03909160032817390739F0E35230
:101CE000FD4F408330935E0320935D03FF91EF919E
:101CF0009F918F914F913F912F910F900FBE0F9019
:101D00001F901895CF93DF93EC019A01AB01E88502
:101D1000F985203081EE380780E0480780E05807D9
:101D200009F449C081E090E00A8802C0880F991F39
:101D30000A94E2F7808360E079E08DE390E00E940E
:101D400072112150304040405040CA01B90122E098
:101D500030E040E050E00E947211EC81FD81308360
:101D6000EE81FF812083EA85FB85208141E050E000
:101D7000CA010E8402C0880F991F0A94E2F7282B2B
:101D80002083EA85FB852081CA010F8402C0880F69
:101D9000991F0A94E2F7282B2083EA85FB8580812E
:101DA000088802C0440F551F0A94E2F7842B8083F1
:101DB000DF91CF910895108220E130E0CECFDC0199
:101DC0001296ED91FC911397E058FF4F21913191BC
:101DD00080819181281B390B2F773070C9010895BC
:101DE000DC011296ED91FC911397EE57FF4F208185
:101DF000318192918291E058F0408217930719F453
:101E00002FEF3FEF05C0E20FF31F8081282F30E056
:101E1000C9010895DC011296ED91FC911397DF0141
:101E2000AE57BF4F2D913C911197E058FF4F8081E5
:101E30009181E058F0408217930719F42FEF3FEF9C
:101E40000BC0E20FF31F80812F5F3F4F2F77307061
:101E50002D933C93282F30E0C9010895DC011296A0
:101E6000ED91FC911397EE57FF4F808191819293F2
:101E700082930895FC01A085B18521898C9190E021
:101E8000022E02C0959587950A94E2F780FFF6CF5F
:101E90000484F585E02D6083089580EE91E09093B1
:101EA0006203809361038DED92E0909364038093CD
:101EB000630385EC90E0909366038093650384EC64
:101EC00090E0909368038093670380EC90E0909398
:101ED0006A038093690381EC90E090936C03809394
:101EE0006B0386EC90E090936E0380936D0384E027
:101EF00080936F0383E08093700387E08093710386
:101F000085E08093720381E08093730308950E94BB
:101F1000160D0E942D0B0E94D40BFDCF0F931F9323
:101F2000CF93DF938C01EB0109C02196D801ED918D
:101F3000FC910190F081E02DC8010995688166232C
:101F4000A1F7DF91CF911F910F910895EF92FF922A
:101F50000F931F93CF93DF938C017B01EA010CC099
:101F6000D7016D917D01D801ED91FC910190F08137
:101F7000E02DC80109952197209791F7DF91CF9126
:101F80001F910F91FF90EF9008952F923F924F92E3
:101F90005F926F927F928F929F92AF92BF92CF92F9
:101FA000DF92EF92FF920F931F93DF93CF93CDB702
:101FB000DEB7A0970FB6F894DEBF0FBECDBF1C01F1
:101FC0006A017B01411551056105710549F440E342
:101FD00050E060E070E020E030E00E94801056C0E9
:101FE000882499245401422E55246624772401E044
:101FF00010E00C0F1D1F080D191DC701B601A3012C
:1020000092010E945011F80160830894811C911C78
:10201000A11CB11CC701B601A30192010E9450117D
:10202000C901DA016C017D01C114D104E104F1049C
:10203000F1F681E0E82EF12CEC0EFD1EE80CF91C07
:102040003E010894611C711CD501C4010197A109CE
:10205000B1096C01C818D90816C0F601EE0DFF1DB4
:1020600040814A3010F4405D01C0495C552747FD6E
:102070005095652F752FC10120E030E00E9480103F
:102080000894E108F1086E147F0439F7A0960FB6A2
:10209000F894DEBF0FBECDBFCF91DF911F910F919E
:1020A000FF90EF90DF90CF90BF90AF909F908F9078
:1020B0007F906F905F904F903F902F900895DC013C
:1020C0002115310541F4ED91FC910190F081E02D55
:1020D000642F099508950E94C50F0895EF92FF920D
:1020E0000F931F939A01E62EFF2400E010E0B80141
:1020F000A7010E945F101F910F91FF90EF9008952C
:10210000EF92FF920F931F93CF93DF93EC017A012D
:102110008B012115310541F4E881F9810190F081AD
:10212000E02D642F09951BC02A303105B1F477FFEB
:1021300010C04DE250E060E070E020E030E00E942E
:10214000801010950095F094E094E11CF11C011DA5
:10215000111DCE01B801A7012AE00E94C50FDF9131
:10216000CF911F910F91FF90EF900895EF92FF9202
:102170000F931F937B019A010027F7FC0095102F06
:10218000B801A7010E9480101F910F91FF90EF905E
:1021900008952F923F924F925F926F927F928F920B
:1021A0009F92AF92BF92CF92DF92EF92FF920F93E6
:1021B0001F93DF93CF93CDB7DEB73B014C011901DD
:1021C0002A016D897E898F89988D6A197B098C090E
:1021D0009D09621A730A840A950AA40193010E9458
:1021E0001211E218F30804091509A80197010E94C9
:1021F00072112A0D3B1D4C1D5D1DB901CA01CF9105
:10220000DF911F910F91FF90EF90DF90CF90BF90E3
:10221000AF909F908F907F906F905F904F903F9086
:102220002F900895629FD001739FF001829FE00D6F
:10223000F11D649FE00DF11D929FF00D839FF00D45
:10224000749FF00D659FF00D9927729FB00DE11DF1
:10225000F91F639FB00DE11DF91FBD01CF011124CE
:102260000895991B79E004C0991F961708F0961BF2
:10227000881F7A95C9F78095089597FB092E072640
:102280000AD077FD04D049D006D000201AF470950A
:1022900061957F4F0895F6F7909581959F4F08952A
:1022A000A1E21A2EAA1BBB1BFD010DC0AA1FBB1F5A
:1022B000EE1FFF1FA217B307E407F50720F0A21BCC
:1022C000B30BE40BF50B661F771F881F991F1A9439
:1022D00069F760957095809590959B01AC01BD0163
:1022E000CF01089597FB092E05260ED057FD04D087
:1022F000D7DF0AD0001C38F45095409530952195D1
:102300003F4F4F4F5F4F0895F6F79095809570952A
:1023100061957F4F8F4F9F4F0895AA1BBB1B51E1C3
:1023200007C0AA1FBB1FA617B70710F0A61BB70B45
:10233000881F991F5A95A9F780959095BC01CD01EA
:102340000895EE0FFF1F0590F491E02D0994F89485
:10235000FFCF2E63707000536572766F206F6E6CC6
:1023600079206F6E2070696E732066726F6D2032F7
:1023700020746F20313300493243206D6F64652033
:102380006E6F742079657420737570706F727465E8
:102390006400556E6B6E6F776E2070696E206D6F86
:1023A0006465004E6F7420656E6F756768206461A8
:1023B0007461002F7661722F666F6C646572732F83
:1023C000714D2F714D625253563343325261522D2B
:1023D000452B42597048425A2B2B2B2B544D2F2DF5
:1023E000546D702D2F6275696C6437323132323022
:1023F000393532393437333637393237322E746D16
:10240000702F5374616E646172644669726D617499
:10241000615F325F325F666F72554E4F5F305F3380
:102420002E6370700020007803000013000100008C
:1024300000003A0F8E0FA60FDF0E0A0F2E0FF00EC0
:10244000714D2F714D625253563343325261522DAA
:10245000452B42597048425A2B2B2B2B544D2F2D74
:10246000546D702D2F6275696C64373231323230A1
:10247000393532393437333637393237322E746D95
:10248000FFFFFFFFFFFFFFFFFFFFFFFFFFFFFFFF5C
:10249000FFFFFFFFFFFFFFFFFFFFFFFFFFFFFFFF4C
:1024A000FFFFFFFFFFFFFFFFFFFFFFFFFFFFFFFF3C
:1024B000FFFFFFFFFFFFFFFFFFFFFFFFFFFFFFFF2C
:107E0000112485E08093810082E08093C00088E1A6
:107E10008093C10086E08093C20080E18093C4001B
:107E200084B714BE81FFD0D08DE0C8D0259A86E0FB
:107E300020E33CEF91E0309385002093840096BBD3
:107E4000B09BFECF1D9AA8958150A9F7DD24D3944D
:107E5000A5E0EA2EF1E1FF2EA4D0813421F481E0E7
:107E6000BED083E024C0823411F484E103C08534A1
:107E700019F485E0B4D08AC08535A1F492D0082FDA
:107E800010E010930102009300028BD090E0982F35
:107E90008827802B912B880F991F90930102809344
:107EA000000273C0863529F484E099D080E071D057
:107EB0006DC0843609F043C07CD0E0910002F0919F
:107EC000010283E080935700E895C0E0D1E069D0DB
:107ED0008993809102028150809302028823B9F72E
:107EE00078D007B600FCFDCF40910002509101020E
:107EF000A0E0B1E02C9130E011968C91119790E0C8
:107F0000982F8827822B932B1296FA010C01D0927E
:107F10005700E89511244E5F5F4FF1E0A038BF078E
:107F200049F7E0910002F0910102E0925700E895D4
:107F300007B600FCFDCFF0925700E89527C08437C4
:107F4000B9F437D046D0E0910002F09101023196A9
:107F5000F0930102E09300023197E4918E2F19D043
:107F600080910202815080930202882361F70EC043
:107F7000853739F42ED08EE10CD085E90AD08FE018
:107F800096CF813511F488E019D023D080E101D05B
:107F900063CF982F8091C00085FFFCCF9093C600DF
:107FA0000895A8958091C00087FFFCCF8091C600FE
:107FB0000895F7DFF6DF80930202F3CFE0E6F0E00A
:107FC00098E190838083089580E0F8DFEE27FF2713
:107FD0000994E7DF803209F0F7DF84E1DACF1F93FD
:107FE000182FDFDF1150E9F7F4DF1F910895FFFF2D
:107FF000FFFFFFFFFFFFFFFFFFFFFFFFFFFFFFFF91
:00000001FF
